:020000040800F2
:1000000000280020F1020008410300084103000815
:1000100041030008410300084103000800000000FC
:100020000000000000000000000000004103000884
:1000300041030008000000004103000841030008DC
:100040004103000841030008410300084103000880
:100050004103000841030008410300084103000870
:100060004103000841030008410300084103000860
:100070004103000841030008410300084103000850
:100080004103000841030008410300084103000840
:100090004103000841030008410300084103000830
:1000A00041030008E502000841030008410300087D
:1000B0004103000841030008410300084103000810
:1000C0004103000841030008410300084103000800
:1000D00041030008410300084103000841030008F0
:1000E000410300084103000800000000410300082C
:1000F00041030008410300084103000841030008D0
:1001000041030008410300084103000841030008BF
:1001100041030008410300084103000841030008AF
:10012000410300084103000841030008410300089F
:1001300010B5054C237833B9044B13B10448AFF321
:1001400000800123237010BD00000020000000008B
:100150008C03000808B5034B1BB103490348AFF3F8
:10016000008008BD00000000040000208C0300088F
:1001700080B483B000AF0346FB7197F90730002BC2
:100180000BDBFB7903F01F02064997F907305B0987
:10019000012000FA02F241F8232000BF0C37BD46CF
:1001A00080BC704700E100E080B483B000AF03463C
:1001B0003960FB7197F90730002B0ADB3B68DAB234
:1001C0000C4997F907301201D2B20B4483F800238F
:1001D0000AE03B68DAB20849FB7903F00F03043BFD
:1001E0001201D2B20B441A7600BF0C37BD4680BC58
:1001F000704700BF00E100E000ED00E080B500AF17
:1002000000F00AF8034BDB68024A43F40053D36062
:10021000FEE700BF0010014080B500AF2D4B1B680A
:100220002C4A43F48033136000BF2A4B1B6803F44D
:100230000033002BF9D0274B5B68264A43F00103BB
:10024000536000BF234B5B6803F00403002BF9D01D
:10025000204B204A5B6853601E4B1E4A5B6853600C
:100260001C4B9B691B4A43F010039361194B9B691C
:10027000184A43F400639361174B5B68164A23F4F2
:1002800040035360144B5B68134A43F440135360BC
:10029000124BFF22DA62114B114A9A620F4BDB6854
:1002A0000E4A43F00103D3600C4B1B680B4A43F02A
:1002B0000103136000BF094B1B6903F00103002B0E
:1002C000F9D001211920FFF76FFF1920FFF750FF28
:1002D00000BF80BD0010024000100140002C014012
:1002E000DF70720080B400AF00BFBD4680BC7047B5
:1002F0000D488546AFF300800C480D490D4A002398
:1003000002E0D458C4500433C4188C42F9D30A4ACA
:100310000A4C002301E013600432A242FBD300F038
:1003200011F8FFF76BFFFEE7002800200000002017
:1003300000000020AC030008000000201C0000208A
:10034000FEE7000070B500260C4D0D4C641BA41098
:10035000A64209D100F01AF800260A4D0A4C641B87
:10036000A410A64205D170BD55F8043B984701364C
:10037000EEE755F8043B98470136F2E7A40300087E
:10038000A4030008A4030008A8030008F8B500BFF0
:10039000F8BC08BC9E467047F8B500BFF8BC08BC66
:0403A0009E467047BE
:0403A40055010008F7
:0403A8003101000817
:04000005080002F1FC
:00000001FF
